{
  "contractName": "Services",
  "abi": [
    {
      "anonymous": false,
      "inputs": [
        {
          "indexed": false,
          "name": "_gameId",
          "type": "uint256"
        },
        {
          "indexed": false,
          "name": "_evnetOrganizerId",
          "type": "uint256"
        },
        {
          "indexed": false,
          "name": "_homeTeam",
          "type": "string"
        },
        {
          "indexed": false,
          "name": "_foreignTeam",
          "type": "string"
        },
        {
          "indexed": false,
          "name": "_tickets",
          "type": "uint256"
        },
        {
          "indexed": false,
          "name": "state",
          "type": "uint8"
        }
      ],
      "name": "CreateGame",
      "type": "event",
      "signature": "0x998c39f1ae3006c00da0b143431c30ceae8e8a9ebf600d7d2518044aaea58526"
    },
    {
      "anonymous": false,
      "inputs": [
        {
          "indexed": false,
          "name": "_ticketPos",
          "type": "uint256"
        },
        {
          "indexed": false,
          "name": "_userId",
          "type": "uint256"
        },
        {
          "indexed": false,
          "name": "_gameId",
          "type": "uint256"
        },
        {
          "indexed": false,
          "name": "_price",
          "type": "int256"
        },
        {
          "indexed": false,
          "name": "state",
          "type": "uint8"
        }
      ],
      "name": "CreateTicket",
      "type": "event",
      "signature": "0x97539382086e0add476d0d8bbbae481631e2f64a33fe93505fa983e7d596deea"
    },
    {
      "anonymous": false,
      "inputs": [
        {
          "indexed": false,
          "name": "_userId",
          "type": "uint256"
        },
        {
          "indexed": false,
          "name": "_name",
          "type": "string"
        },
        {
          "indexed": false,
          "name": "_addr",
          "type": "address"
        },
        {
          "indexed": false,
          "name": "_mobile",
          "type": "int256"
        },
        {
          "indexed": false,
          "name": "_ticketOwns",
          "type": "uint256"
        },
        {
          "indexed": false,
          "name": "_password",
          "type": "string"
        }
      ],
      "name": "CreateUser",
      "type": "event",
      "signature": "0x4b0cfa91b70b04890ce3d872e5ffb77ad35a75302ad0d967f53cbdbb641800ee"
    },
    {
      "anonymous": false,
      "inputs": [
        {
          "indexed": false,
          "name": "_evnetOrganizerId",
          "type": "uint256"
        },
        {
          "indexed": false,
          "name": "_name",
          "type": "string"
        },
        {
          "indexed": false,
          "name": "_addr",
          "type": "address"
        },
        {
          "indexed": false,
          "name": "_password",
          "type": "string"
        }
      ],
      "name": "CreateEventOrganizer",
      "type": "event",
      "signature": "0x4f00c7b885d3a22336c66b1d625a1c3739bf600c8ef0cc9d1ef99ae50903d4f7"
    },
    {
      "anonymous": false,
      "inputs": [
        {
          "indexed": false,
          "name": "_userId",
          "type": "uint256"
        },
        {
          "indexed": false,
          "name": "_gameId",
          "type": "uint256"
        },
        {
          "indexed": false,
          "name": "_tickets",
          "type": "uint256"
        }
      ],
      "name": "BuyTickets",
      "type": "event",
      "signature": "0x40b963f4c366c9198c53b5c895028a852b8d8e53a54f37afe27d373efefa14fe"
    },
    {
      "anonymous": false,
      "inputs": [
        {
          "indexed": false,
          "name": "_userId",
          "type": "uint256"
        },
        {
          "indexed": false,
          "name": "_gameId",
          "type": "uint256"
        },
        {
          "indexed": false,
          "name": "_ticketpos",
          "type": "uint256"
        },
        {
          "indexed": false,
          "name": "_price",
          "type": "int256"
        },
        {
          "indexed": false,
          "name": "state",
          "type": "uint8"
        }
      ],
      "name": "BuyTicket",
      "type": "event",
      "signature": "0xe72b23892c8d4d4414c71ca14e9e74d3ca3c203d8da2f31e1d791ae32d463e16"
    },
    {
      "anonymous": false,
      "inputs": [
        {
          "indexed": false,
          "name": "_userId",
          "type": "uint256"
        },
        {
          "indexed": false,
          "name": "_gameId",
          "type": "uint256"
        },
        {
          "indexed": false,
          "name": "_ticketId",
          "type": "uint256"
        },
        {
          "indexed": false,
          "name": "state",
          "type": "uint8"
        }
      ],
      "name": "TicketState",
      "type": "event",
      "signature": "0x24579924ee4db282267118b9187d4c6ac51707d33bd20040db020febaad041e3"
    },
    {
      "anonymous": false,
      "inputs": [
        {
          "indexed": false,
          "name": "_gameId",
          "type": "uint256"
        },
        {
          "indexed": false,
          "name": "_evnetOrganizerId",
          "type": "uint256"
        },
        {
          "indexed": false,
          "name": "_homeTeam",
          "type": "string"
        },
        {
          "indexed": false,
          "name": "_foreignTeam",
          "type": "string"
        },
        {
          "indexed": false,
          "name": "state",
          "type": "uint8"
        }
      ],
      "name": "GameSate",
      "type": "event",
      "signature": "0x4e68a854e9cc6a926a82fba13a4309738873fceb9a479a09bf09e54ab3f4a2eb"
    },
    {
      "constant": false,
      "inputs": [
        {
          "name": "_name",
          "type": "string"
        },
        {
          "name": "_addr",
          "type": "address"
        },
        {
          "name": "_evnetOrganizerId",
          "type": "uint256"
        },
        {
          "name": "_password",
          "type": "string"
        }
      ],
      "name": "createEventOrganizer",
      "outputs": [
        {
          "name": "",
          "type": "bool"
        }
      ],
      "payable": false,
      "stateMutability": "nonpayable",
      "type": "function",
      "signature": "0x936abdc0"
    },
    {
      "constant": true,
      "inputs": [
        {
          "name": "_evnetOrganizerId",
          "type": "uint256"
        }
      ],
      "name": "checkEventOrganizer",
      "outputs": [
        {
          "name": "",
          "type": "bool"
        }
      ],
      "payable": false,
      "stateMutability": "view",
      "type": "function",
      "signature": "0x68eb9cc0"
    },
    {
      "constant": true,
      "inputs": [
        {
          "name": "_addr",
          "type": "address"
        }
      ],
      "name": "checkAddr",
      "outputs": [
        {
          "name": "",
          "type": "bool"
        }
      ],
      "payable": false,
      "stateMutability": "view",
      "type": "function",
      "signature": "0x0f55ce53"
    },
    {
      "constant": true,
      "inputs": [],
      "name": "getCounterEventOrganizer",
      "outputs": [
        {
          "name": "",
          "type": "uint256"
        }
      ],
      "payable": false,
      "stateMutability": "view",
      "type": "function",
      "signature": "0x849db2f5"
    },
    {
      "constant": true,
      "inputs": [
        {
          "name": "_evnetOrganizerId",
          "type": "uint256"
        }
      ],
      "name": "findPosEventOrganizer",
      "outputs": [
        {
          "name": "",
          "type": "uint256"
        }
      ],
      "payable": false,
      "stateMutability": "view",
      "type": "function",
      "signature": "0x5490b011"
    },
    {
      "constant": true,
      "inputs": [
        {
          "name": "_evnetOrganizerId",
          "type": "uint256"
        }
      ],
      "name": "getEventOrganizer",
      "outputs": [
        {
          "name": "",
          "type": "uint256"
        },
        {
          "name": "",
          "type": "string"
        },
        {
          "name": "",
          "type": "address"
        },
        {
          "name": "",
          "type": "string"
        }
      ],
      "payable": false,
      "stateMutability": "view",
      "type": "function",
      "signature": "0x55c73485"
    },
    {
      "constant": false,
      "inputs": [
        {
          "name": "_userId",
          "type": "uint256"
        },
        {
          "name": "_name",
          "type": "string"
        },
        {
          "name": "_addr",
          "type": "address"
        },
        {
          "name": "_mobile",
          "type": "int256"
        },
        {
          "name": "_password",
          "type": "string"
        }
      ],
      "name": "createUser",
      "outputs": [
        {
          "name": "",
          "type": "bool"
        }
      ],
      "payable": false,
      "stateMutability": "nonpayable",
      "type": "function",
      "signature": "0x98aa4b01"
    },
    {
      "constant": true,
      "inputs": [
        {
          "name": "_userId",
          "type": "uint256"
        }
      ],
      "name": "checkUser",
      "outputs": [
        {
          "name": "",
          "type": "bool"
        }
      ],
      "payable": false,
      "stateMutability": "view",
      "type": "function",
      "signature": "0x723331bb"
    },
    {
      "constant": true,
      "inputs": [],
      "name": "getCounterUsers",
      "outputs": [
        {
          "name": "",
          "type": "uint256"
        }
      ],
      "payable": false,
      "stateMutability": "view",
      "type": "function",
      "signature": "0xdd338e35"
    },
    {
      "constant": true,
      "inputs": [
        {
          "name": "_userId",
          "type": "uint256"
        }
      ],
      "name": "findPosUser",
      "outputs": [
        {
          "name": "",
          "type": "uint256"
        }
      ],
      "payable": false,
      "stateMutability": "view",
      "type": "function",
      "signature": "0xf05884f9"
    },
    {
      "constant": false,
      "inputs": [
        {
          "name": "_gameId",
          "type": "uint256"
        },
        {
          "name": "_evnetOrganizerId",
          "type": "uint256"
        },
        {
          "name": "_homeTeam",
          "type": "string"
        },
        {
          "name": "_foreignTeam",
          "type": "string"
        },
        {
          "name": "_tickets",
          "type": "uint256"
        },
        {
          "name": "_price",
          "type": "int256"
        }
      ],
      "name": "createGame",
      "outputs": [
        {
          "name": "",
          "type": "bool"
        }
      ],
      "payable": false,
      "stateMutability": "nonpayable",
      "type": "function",
      "signature": "0x8e21b54a"
    },
    {
      "constant": true,
      "inputs": [
        {
          "name": "_gameId",
          "type": "uint256"
        }
      ],
      "name": "checkGame",
      "outputs": [
        {
          "name": "",
          "type": "bool"
        }
      ],
      "payable": false,
      "stateMutability": "view",
      "type": "function",
      "signature": "0x01e3eb27"
    },
    {
      "constant": true,
      "inputs": [],
      "name": "getCountGame",
      "outputs": [
        {
          "name": "",
          "type": "uint256"
        }
      ],
      "payable": false,
      "stateMutability": "view",
      "type": "function",
      "signature": "0x2fdc8160"
    },
    {
      "constant": false,
      "inputs": [
        {
          "name": "_gameId",
          "type": "uint256"
        },
        {
          "name": "_tickets",
          "type": "uint256"
        },
        {
          "name": "_price",
          "type": "int256"
        }
      ],
      "name": "createTicket",
      "outputs": [
        {
          "name": "",
          "type": "bool"
        }
      ],
      "payable": false,
      "stateMutability": "nonpayable",
      "type": "function",
      "signature": "0x86c5325b"
    },
    {
      "constant": true,
      "inputs": [
        {
          "name": "_gameId",
          "type": "uint256"
        }
      ],
      "name": "findPosGame",
      "outputs": [
        {
          "name": "",
          "type": "uint256"
        }
      ],
      "payable": false,
      "stateMutability": "view",
      "type": "function",
      "signature": "0x7d30e1de"
    },
    {
      "constant": true,
      "inputs": [
        {
          "name": "_gameId",
          "type": "uint256"
        },
        {
          "name": "_ticketPos",
          "type": "uint256"
        }
      ],
      "name": "getTicket",
      "outputs": [
        {
          "name": "",
          "type": "uint256"
        },
        {
          "name": "",
          "type": "uint256"
        },
        {
          "name": "",
          "type": "uint256"
        },
        {
          "name": "state",
          "type": "uint8"
        }
      ],
      "payable": false,
      "stateMutability": "view",
      "type": "function",
      "signature": "0xa426e4c8"
    },
    {
      "constant": true,
      "inputs": [
        {
          "name": "_gameId",
          "type": "uint256"
        }
      ],
      "name": "getGame",
      "outputs": [
        {
          "name": "",
          "type": "uint256"
        },
        {
          "name": "",
          "type": "uint256"
        },
        {
          "name": "",
          "type": "string"
        },
        {
          "name": "",
          "type": "string"
        },
        {
          "name": "",
          "type": "uint256"
        },
        {
          "name": "state",
          "type": "uint8"
        }
      ],
      "payable": false,
      "stateMutability": "view",
      "type": "function",
      "signature": "0xa2f77bcc"
    },
    {
      "constant": true,
      "inputs": [
        {
          "name": "_eventOrganizerId",
          "type": "uint256"
        },
        {
          "name": "_gameId",
          "type": "uint256"
        }
      ],
      "name": "getEventOrganizerGame",
      "outputs": [
        {
          "name": "",
          "type": "uint256"
        },
        {
          "name": "",
          "type": "string"
        },
        {
          "name": "",
          "type": "uint256"
        },
        {
          "name": "",
          "type": "string"
        },
        {
          "name": "",
          "type": "string"
        },
        {
          "name": "",
          "type": "uint256"
        },
        {
          "name": "state",
          "type": "uint8"
        }
      ],
      "payable": false,
      "stateMutability": "view",
      "type": "function",
      "signature": "0x20fc1de9"
    },
    {
      "constant": true,
      "inputs": [
        {
          "name": "_eventOrganizerId",
          "type": "uint256"
        }
      ],
      "name": "countEventOrganizerGame",
      "outputs": [
        {
          "name": "",
          "type": "uint256"
        }
      ],
      "payable": false,
      "stateMutability": "view",
      "type": "function",
      "signature": "0x5565b962"
    },
    {
      "constant": true,
      "inputs": [
        {
          "name": "_eventOrganizerId",
          "type": "uint256"
        }
      ],
      "name": "getEventOrganizerAddr",
      "outputs": [
        {
          "name": "",
          "type": "address"
        }
      ],
      "payable": false,
      "stateMutability": "view",
      "type": "function",
      "signature": "0x77beeaa2"
    },
    {
      "constant": true,
      "inputs": [
        {
          "name": "_gameId",
          "type": "uint256"
        }
      ],
      "name": "getTicketAvailable",
      "outputs": [
        {
          "name": "",
          "type": "uint256"
        }
      ],
      "payable": false,
      "stateMutability": "view",
      "type": "function",
      "signature": "0x9076a476"
    },
    {
      "constant": false,
      "inputs": [
        {
          "name": "_userId",
          "type": "uint256"
        },
        {
          "name": "_gameId",
          "type": "uint256"
        },
        {
          "name": "_tickets",
          "type": "uint256"
        }
      ],
      "name": "buyTickets",
      "outputs": [
        {
          "name": "",
          "type": "bool"
        }
      ],
      "payable": false,
      "stateMutability": "nonpayable",
      "type": "function",
      "signature": "0xc9a450df"
    },
    {
      "constant": false,
      "inputs": [
        {
          "name": "_posU",
          "type": "uint256"
        },
        {
          "name": "_posG",
          "type": "uint256"
        }
      ],
      "name": "buy",
      "outputs": [
        {
          "name": "",
          "type": "bool"
        }
      ],
      "payable": false,
      "stateMutability": "nonpayable",
      "type": "function",
      "signature": "0xd6febde8"
    },
    {
      "constant": true,
      "inputs": [
        {
          "name": "_userId",
          "type": "uint256"
        }
      ],
      "name": "getUser",
      "outputs": [
        {
          "name": "",
          "type": "uint256"
        },
        {
          "name": "",
          "type": "string"
        },
        {
          "name": "",
          "type": "address"
        },
        {
          "name": "",
          "type": "int256"
        },
        {
          "name": "",
          "type": "uint256"
        },
        {
          "name": "",
          "type": "string"
        }
      ],
      "payable": false,
      "stateMutability": "view",
      "type": "function",
      "signature": "0xb0467deb"
    },
    {
      "constant": true,
      "inputs": [
        {
          "name": "_userId",
          "type": "uint256"
        },
        {
          "name": "_ticket",
          "type": "uint256"
        }
      ],
      "name": "getUser_ticket",
      "outputs": [
        {
          "name": "",
          "type": "uint256"
        },
        {
          "name": "",
          "type": "string"
        },
        {
          "name": "",
          "type": "uint256"
        },
        {
          "name": "",
          "type": "uint256"
        },
        {
          "name": "State",
          "type": "uint8"
        }
      ],
      "payable": false,
      "stateMutability": "view",
      "type": "function",
      "signature": "0xf3293005"
    },
    {
      "constant": true,
      "inputs": [
        {
          "name": "_userId",
          "type": "uint256"
        },
        {
          "name": "_gameId",
          "type": "uint256"
        }
      ],
      "name": "get_number_Of_ticket_own",
      "outputs": [
        {
          "name": "",
          "type": "uint256"
        }
      ],
      "payable": false,
      "stateMutability": "view",
      "type": "function",
      "signature": "0xde837923"
    },
    {
      "constant": false,
      "inputs": [
        {
          "name": "_gameId",
          "type": "uint256"
        }
      ],
      "name": "gameStart",
      "outputs": [
        {
          "name": "",
          "type": "bool"
        }
      ],
      "payable": false,
      "stateMutability": "nonpayable",
      "type": "function",
      "signature": "0xb8a5368a"
    },
    {
      "constant": false,
      "inputs": [
        {
          "name": "_gameId",
          "type": "uint256"
        }
      ],
      "name": "gameEnded",
      "outputs": [
        {
          "name": "",
          "type": "bool"
        }
      ],
      "payable": false,
      "stateMutability": "nonpayable",
      "type": "function",
      "signature": "0x8b46a6da"
    },
    {
      "constant": false,
      "inputs": [
        {
          "name": "_userId",
          "type": "uint256"
        },
        {
          "name": "_gameId",
          "type": "uint256"
        }
      ],
      "name": "vaildateTicket",
      "outputs": [
        {
          "name": "",
          "type": "bool"
        }
      ],
      "payable": false,
      "stateMutability": "nonpayable",
      "type": "function",
      "signature": "0xf9ed0b4c"
    },
    {
      "constant": false,
      "inputs": [
        {
          "name": "_userId",
          "type": "uint256"
        },
        {
          "name": "_gameId",
          "type": "uint256"
        }
      ],
      "name": "invalidTicket",
      "outputs": [
        {
          "name": "",
          "type": "bool"
        }
      ],
      "payable": false,
      "stateMutability": "nonpayable",
      "type": "function",
      "signature": "0x25e1ea98"
    }
  ],
  "bytecode": "0x608060405234801561001057600080fd5b506142be806100206000396000f3fe608060405260043610610180576000357c0100000000000000000000000000000000000000000000000000000000900463ffffffff16806301e3eb27146101855780630f55ce53146101d857806320fc1de91461024157806325e1ea98146104015780632fdc81601461045e5780635490b011146104895780635565b962146104d857806355c734851461052757806368eb9cc014610681578063723331bb146106d457806377beeaa2146107275780637d30e1de146107a2578063849db2f5146107f157806386c5325b1461081c5780638b46a6da146108835780638e21b54a146108d65780639076a47614610a75578063936abdc014610ac457806398aa4b0114610c65578063a2f77bcc14610e10578063a426e4c814610f5a578063b0467deb14610fd6578063b8a5368a1461113e578063c9a450df14611191578063d6febde8146111f8578063dd338e3514611255578063de83792314611280578063f05884f9146112d9578063f329300514611328578063f9ed0b4c14611410575b600080fd5b34801561019157600080fd5b506101be600480360360208110156101a857600080fd5b810190808035906020019092919050505061146d565b604051808215151515815260200191505060405180910390f35b3480156101e457600080fd5b50610227600480360360208110156101fb57600080fd5b81019080803573ffffffffffffffffffffffffffffffffffffffff1690602001909291905050506114df565b604051808215151515815260200191505060405180910390f35b34801561024d57600080fd5b506102846004803603604081101561026457600080fd5b810190808035906020019092919080359060200190929190505050611650565b604051808881526020018060200187815260200180602001806020018681526020018560028111156102b257fe5b60ff16815260200184810384528a818151815260200191508051906020019080838360005b838110156102f25780820151818401526020810190506102d7565b50505050905090810190601f16801561031f5780820380516001836020036101000a031916815260200191505b50848103835288818151815260200191508051906020019080838360005b8381101561035857808201518184015260208101905061033d565b50505050905090810190601f1680156103855780820380516001836020036101000a031916815260200191505b50848103825287818151815260200191508051906020019080838360005b838110156103be5780820151818401526020810190506103a3565b50505050905090810190601f1680156103eb5780820380516001836020036101000a031916815260200191505b509a505050505050505050505060405180910390f35b34801561040d57600080fd5b506104446004803603604081101561042457600080fd5b8101908080359060200190929190803590602001909291905050506119a7565b604051808215151515815260200191505060405180910390f35b34801561046a57600080fd5b50610473611c52565b6040518082815260200191505060405180910390f35b34801561049557600080fd5b506104c2600480360360208110156104ac57600080fd5b8101908080359060200190929190505050611c5f565b6040518082815260200191505060405180910390f35b3480156104e457600080fd5b50610511600480360360208110156104fb57600080fd5b8101908080359060200190929190505050611cbf565b6040518082815260200191505060405180910390f35b34801561053357600080fd5b506105606004803603602081101561054a57600080fd5b8101908080359060200190929190505050611d50565b60405180858152602001806020018473ffffffffffffffffffffffffffffffffffffffff1673ffffffffffffffffffffffffffffffffffffffff16815260200180602001838103835286818151815260200191508051906020019080838360005b838110156105dc5780820151818401526020810190506105c1565b50505050905090810190601f1680156106095780820380516001836020036101000a031916815260200191505b50838103825284818151815260200191508051906020019080838360005b83811015610642578082015181840152602081019050610627565b50505050905090810190601f16801561066f5780820380516001836020036101000a031916815260200191505b50965050505050505060405180910390f35b34801561068d57600080fd5b506106ba600480360360208110156106a457600080fd5b8101908080359060200190929190505050611f4f565b604051808215151515815260200191505060405180910390f35b3480156106e057600080fd5b5061070d600480360360208110156106f757600080fd5b8101908080359060200190929190505050611fc1565b604051808215151515815260200191505060405180910390f35b34801561073357600080fd5b506107606004803603602081101561074a57600080fd5b8101908080359060200190929190505050612033565b604051808273ffffffffffffffffffffffffffffffffffffffff1673ffffffffffffffffffffffffffffffffffffffff16815260200191505060405180910390f35b3480156107ae57600080fd5b506107db600480360360208110156107c557600080fd5b81019080803590602001909291905050506120b9565b6040518082815260200191505060405180910390f35b3480156107fd57600080fd5b50610806612119565b6040518082815260200191505060405180910390f35b34801561082857600080fd5b506108696004803603606081101561083f57600080fd5b81019080803590602001909291908035906020019092919080359060200190929190505050612126565b604051808215151515815260200191505060405180910390f35b34801561088f57600080fd5b506108bc600480360360208110156108a657600080fd5b81019080803590602001909291905050506122db565b604051808215151515815260200191505060405180910390f35b3480156108e257600080fd5b50610a5b600480360360c08110156108f957600080fd5b8101908080359060200190929190803590602001909291908035906020019064010000000081111561092a57600080fd5b82018360208201111561093c57600080fd5b8035906020019184600183028401116401000000008311171561095e57600080fd5b91908080601f016020809104026020016040519081016040528093929190818152602001838380828437600081840152601f19601f820116905080830192505050505050509192919290803590602001906401000000008111156109c157600080fd5b8201836020820111156109d357600080fd5b803590602001918460018302840111640100000000831117156109f557600080fd5b91908080601f016020809104026020016040519081016040528093929190818152602001838380828437600081840152601f19601f82011690508083019250505050505050919291929080359060200190929190803590602001909291905050506125a0565b604051808215151515815260200191505060405180910390f35b348015610a8157600080fd5b50610aae60048036036020811015610a9857600080fd5b8101908080359060200190929190505050612815565b6040518082815260200191505060405180910390f35b348015610ad057600080fd5b50610c4b60048036036080811015610ae757600080fd5b8101908080359060200190640100000000811115610b0457600080fd5b820183602082011115610b1657600080fd5b80359060200191846001830284011164010000000083111715610b3857600080fd5b91908080601f016020809104026020016040519081016040528093929190818152602001838380828437600081840152601f19601f820116905080830192505050505050509192919290803573ffffffffffffffffffffffffffffffffffffffff1690602001909291908035906020019092919080359060200190640100000000811115610bc557600080fd5b820183602082011115610bd757600080fd5b80359060200191846001830284011164010000000083111715610bf957600080fd5b91908080601f016020809104026020016040519081016040528093929190818152602001838380828437600081840152601f19601f820116905080830192505050505050509192919290505050612937565b604051808215151515815260200191505060405180910390f35b348015610c7157600080fd5b50610df6600480360360a0811015610c8857600080fd5b810190808035906020019092919080359060200190640100000000811115610caf57600080fd5b820183602082011115610cc157600080fd5b80359060200191846001830284011164010000000083111715610ce357600080fd5b91908080601f016020809104026020016040519081016040528093929190818152602001838380828437600081840152601f19601f820116905080830192505050505050509192919290803573ffffffffffffffffffffffffffffffffffffffff1690602001909291908035906020019092919080359060200190640100000000811115610d7057600080fd5b820183602082011115610d8257600080fd5b80359060200191846001830284011164010000000083111715610da457600080fd5b91908080601f016020809104026020016040519081016040528093929190818152602001838380828437600081840152601f19601f820116905080830192505050505050509192919290505050612bb2565b604051808215151515815260200191505060405180910390f35b348015610e1c57600080fd5b50610e4960048036036020811015610e3357600080fd5b8101908080359060200190929190505050612e60565b604051808781526020018681526020018060200180602001858152602001846002811115610e7357fe5b60ff168152602001838103835287818151815260200191508051906020019080838360005b83811015610eb3578082015181840152602081019050610e98565b50505050905090810190601f168015610ee05780820380516001836020036101000a031916815260200191505b50838103825286818151815260200191508051906020019080838360005b83811015610f19578082015181840152602081019050610efe565b50505050905090810190601f168015610f465780820380516001836020036101000a031916815260200191505b509850505050505050505060405180910390f35b348015610f6657600080fd5b50610f9d60048036036040811015610f7d57600080fd5b810190808035906020019092919080359060200190929190505050613095565b60405180858152602001848152602001838152602001826003811115610fbf57fe5b60ff16815260200194505050505060405180910390f35b348015610fe257600080fd5b5061100f60048036036020811015610ff957600080fd5b810190808035906020019092919050505061319b565b60405180878152602001806020018673ffffffffffffffffffffffffffffffffffffffff1673ffffffffffffffffffffffffffffffffffffffff16815260200185815260200184815260200180602001838103835288818151815260200191508051906020019080838360005b8381101561109757808201518184015260208101905061107c565b50505050905090810190601f1680156110c45780820380516001836020036101000a031916815260200191505b50838103825284818151815260200191508051906020019080838360005b838110156110fd5780820151818401526020810190506110e2565b50505050905090810190601f16801561112a5780820380516001836020036101000a031916815260200191505b509850505050505050505060405180910390f35b34801561114a57600080fd5b506111776004803603602081101561116157600080fd5b81019080803590602001909291905050506133e5565b604051808215151515815260200191505060405180910390f35b34801561119d57600080fd5b506111de600480360360608110156111b457600080fd5b810190808035906020019092919080359060200190929190803590602001909291905050506136a9565b604051808215151515815260200191505060405180910390f35b34801561120457600080fd5b5061123b6004803603604081101561121b57600080fd5b81019080803590602001909291908035906020019092919050505061375c565b604051808215151515815260200191505060405180910390f35b34801561126157600080fd5b5061126a613b04565b6040518082815260200191505060405180910390f35b34801561128c57600080fd5b506112c3600480360360408110156112a357600080fd5b810190808035906020019092919080359060200190929190505050613b10565b6040518082815260200191505060405180910390f35b3480156112e557600080fd5b50611312600480360360208110156112fc57600080fd5b8101908080359060200190929190505050613baf565b6040518082815260200191505060405180910390f35b34801561133457600080fd5b5061136b6004803603604081101561134b57600080fd5b810190808035906020019092919080359060200190929190505050613c0f565b604051808681526020018060200185815260200184815260200183600381111561139157fe5b60ff168152602001828103825286818151815260200191508051906020019080838360005b838110156113d15780820151818401526020810190506113b6565b50505050905090810190601f1680156113fe5780820380516001836020036101000a031916815260200191505b50965050505050505060405180910390f35b34801561141c57600080fd5b506114536004803603604081101561143357600080fd5b810190808035906020019092919080359060200190929190505050613dc2565b604051808215151515815260200191505060405180910390f35b600080611478611c52565b1415156114d55760008090505b61148d611c52565b8110156114d357826001828154811015156114a457fe5b90600052602060002090600702016000015414156114c65760009150506114da565b8080600101915050611485565b505b600190505b919050565b6000806114ea612119565b1415156115935760008090505b6114ff612119565b811015611591578273ffffffffffffffffffffffffffffffffffffffff1660028281548110151561152c57fe5b906000526020600020906004020160020160009054906101000a900473ffffffffffffffffffffffffffffffffffffffff1673ffffffffffffffffffffffffffffffffffffffff16141561158457600091505061164b565b80806001019150506114f7565b505b600061159d613b04565b1415156116465760008090505b6115b2613b04565b811015611644578273ffffffffffffffffffffffffffffffffffffffff166000828154811015156115df57fe5b906000526020600020906007020160020160009054906101000a900473ffffffffffffffffffffffffffffffffffffffff1673ffffffffffffffffffffffffffffffffffffffff16141561163757600091505061164b565b80806001019150506115aa565b505b600190505b919050565b6000606060006060806000806000611667896120b9565b905060006116748b611c5f565b905060018281548110151561168557fe5b9060005260206000209060070201600101546002828154811015156116a657fe5b9060005260206000209060040201600001541415611998576002818154811015156116cd57fe5b9060005260206000209060040201600001546002828154811015156116ee57fe5b906000526020600020906004020160010160018481548110151561170e57fe5b90600052602060002090600702016000015460018581548110151561172f57fe5b906000526020600020906007020160020160018681548110151561174f57fe5b906000526020600020906007020160030160018781548110151561176f57fe5b90600052602060002090600702016004015460018881548110151561179057fe5b906000526020600020906007020160050160009054906101000a900460ff16858054600181600116156101000203166002900480601f0160208091040260200160405190810160405280929190818152602001828054600181600116156101000203166002900480156118445780601f1061181957610100808354040283529160200191611844565b820191906000526020600020905b81548152906001019060200180831161182757829003601f168201915b50505050509550838054600181600116156101000203166002900480601f0160208091040260200160405190810160405280929190818152602001828054600181600116156101000203166002900480156118e05780601f106118b5576101008083540402835291602001916118e0565b820191906000526020600020905b8154815290600101906020018083116118c357829003601f168201915b50505050509350828054600181600116156101000203166002900480601f01602080910402602001604051908101604052809291908181526020018280546001816001161561010002031660029004801561197c5780601f106119515761010080835404028352916020019161197c565b820191906000526020600020905b81548152906001019060200180831161195f57829003601f168201915b505050505092509850985098509850985098509850505061199b565b50505b92959891949750929550565b6000806119b3836120b9565b905060006119c085613baf565b90506119cb8461146d565b1515611c455760008090505b6000828154811015156119e657fe5b906000526020600020906007020160040154811015611c395784600083815481101515611a0f57fe5b90600052602060002090600702016006016000838152602001908152602001600020600201541415611c2c5760008083815481101515611a4b57fe5b906000526020600020906007020160060160008381526020019081526020016000206000015490506003600185815481101515611a8457fe5b9060005260206000209060070201600601600083815260200190815260200160002060040160006101000a81548160ff02191690836003811115611ac457fe5b0217905550600184815481101515611ad857fe5b90600052602060002090600702016006016000828152602001908152602001600020600084815481101515611b0957fe5b90600052602060002090600702016006016000848152602001908152602001600020600082015481600001556001820154816001015560028201548160020155600382015481600301556004820160009054906101000a900460ff168160040160006101000a81548160ff02191690836003811115611b8457fe5b02179055509050507f24579924ee4db282267118b9187d4c6ac51707d33bd20040db020febaad041e3878784600087815481101515611bbf57fe5b9060005260206000209060070201600601600087815260200190815260200160002060040160009054906101000a900460ff1660405180858152602001848152602001838152602001826003811115611c1457fe5b60ff16815260200194505050505060405180910390a1505b80806001019150506119d7565b50600192505050611c4c565b6000925050505b92915050565b6000600180549050905090565b600080600090505b611c6f612119565b811015611cb45782600282815481101515611c8657fe5b9060005260206000209060040201600001541415611ca75780915050611cba565b8080600101915050611c67565b50600090505b919050565b600080611ccb83611c5f565b9050600080905060008090505b611ce0611c52565b811015611d4557600181815481101515611cf657fe5b906000526020600020906007020160010154600284815481101515611d1757fe5b9060005260206000209060040201600001541415611d385781806001019250505b8080600101915050611cd8565b508092505050919050565b60006060600060606000611d6386611c5f565b9050600281815481101515611d7457fe5b906000526020600020906004020160000154600282815481101515611d9557fe5b9060005260206000209060040201600101600283815481101515611db557fe5b906000526020600020906004020160020160009054906101000a900473ffffffffffffffffffffffffffffffffffffffff16600284815481101515611df657fe5b9060005260206000209060040201600301828054600181600116156101000203166002900480601f016020809104026020016040519081016040528092919081815260200182805460018160011615610100020316600290048015611e9c5780601f10611e7157610100808354040283529160200191611e9c565b820191906000526020600020905b815481529060010190602001808311611e7f57829003601f168201915b50505050509250808054600181600116156101000203166002900480601f016020809104026020016040519081016040528092919081815260200182805460018160011615610100020316600290048015611f385780601f10611f0d57610100808354040283529160200191611f38565b820191906000526020600020905b815481529060010190602001808311611f1b57829003601f168201915b505050505090509450945094509450509193509193565b600080611f5a612119565b141515611fb75760008090505b611f6f612119565b811015611fb55782600282815481101515611f8657fe5b9060005260206000209060040201600001541415611fa8576000915050611fbc565b8080600101915050611f67565b505b600190505b919050565b600080611fcc613b04565b1415156120295760008090505b611fe1613b04565b8110156120275782600082815481101515611ff857fe5b906000526020600020906007020160000154141561201a57600091505061202e565b8080600101915050611fd9565b505b600190505b919050565b60008061203f83611c5f565b90508260028281548110151561205157fe5b90600052602060002090600402016000015414156120b25760028181548110151561207857fe5b906000526020600020906004020160020160009054906101000a900473ffffffffffffffffffffffffffffffffffffffff169150506120b4565b505b919050565b600080600090505b6120c9611c52565b81101561210e57826001828154811015156120e057fe5b90600052602060002090600702016000015414156121015780915050612114565b80806001019150506120c1565b50600090505b919050565b6000600280549050905090565b600080612132856120b9565b90508460018281548110151561214457fe5b90600052602060002090600702016000015414801561218257508360018281548110151561216e57fe5b906000526020600020906007020160040154145b156122ce5760008090505b848110156122c35760a06040519081016040528082815260200160008152602001878152602001858152602001600060038111156121c757fe5b8152506001838154811015156121d957fe5b906000526020600020906007020160060160008381526020019081526020016000206000820151816000015560208201518160010155604082015181600201556060820151816003015560808201518160040160006101000a81548160ff0219169083600381111561224757fe5b02179055509050507f97539382086e0add476d0d8bbbae481631e2f64a33fe93505fa983e7d596deea816000888760006040518086815260200185815260200184815260200183815260200182600381111561229f57fe5b60ff1681526020019550505050505060405180910390a1808060010191505061218d565b5060019150506122d4565b60009150505b9392505050565b6000806122e7836120b9565b9050600160028111156122f657fe5b60018281548110151561230557fe5b906000526020600020906007020160050160009054906101000a900460ff16600281111561232f57fe5b141561259557600260018281548110151561234657fe5b906000526020600020906007020160050160006101000a81548160ff0219169083600281111561237257fe5b02179055507f4e68a854e9cc6a926a82fba13a4309738873fceb9a479a09bf09e54ab3f4a2eb6001828154811015156123a757fe5b9060005260206000209060070201600001546001838154811015156123c857fe5b9060005260206000209060070201600101546001848154811015156123e957fe5b906000526020600020906007020160020160018581548110151561240957fe5b906000526020600020906007020160030160018681548110151561242957fe5b906000526020600020906007020160050160009054906101000a900460ff1660405180868152602001858152602001806020018060200184600281111561246c57fe5b60ff1681526020018381038352868181546001816001161561010002031660029004815260200191508054600181600116156101000203166002900480156124f55780601f106124ca576101008083540402835291602001916124f5565b820191906000526020600020905b8154815290600101906020018083116124d857829003601f168201915b50508381038252858181546001816001161561010002031660029004815260200191508054600181600116156101000203166002900480156125785780601f1061254d57610100808354040283529160200191612578565b820191906000526020600020905b81548152906001019060200180831161255b57829003601f168201915b505097505050505050505060405180910390a1600191505061259b565b60009150505b919050565b60006125ab86611f4f565b1580156125bd57506125bc8761146d565b5b15612806576125ca61411f565b60c0604051908101604052808981526020018881526020018781526020018681526020018581526020016000600281111561260157fe5b81525090506001819080600181540180825580915050906001820390600052602060002090600702016000909192909190915060008201518160000155602082015181600101556040820151816002019080519060200190612664929190614161565b506060820151816003019080519060200190612681929190614161565b506080820151816004015560a08201518160050160006101000a81548160ff021916908360028111156126b057fe5b02179055505050507f998c39f1ae3006c00da0b143431c30ceae8e8a9ebf600d7d2518044aaea585268888888888600060405180878152602001868152602001806020018060200185815260200184600281111561270a57fe5b60ff168152602001838103835287818151815260200191508051906020019080838360005b8381101561274a57808201518184015260208101905061272f565b50505050905090810190601f1680156127775780820380516001836020036101000a031916815260200191505b50838103825286818151815260200191508051906020019080838360005b838110156127b0578082015181840152602081019050612795565b50505050905090810190601f1680156127dd5780820380516001836020036101000a031916815260200191505b509850505050505050505060405180910390a16127fb888585612126565b50600191505061280b565b600090505b9695505050505050565b600080600090506000612827846120b9565b905060008090505b60018281548110151561283e57fe5b90600052602060002090600702016004015481101561292c576000600381111561286457fe5b60018381548110151561287357fe5b9060005260206000209060070201600601600083815260200190815260200160002060040160009054906101000a900460ff1660038111156128b157fe5b14801561291157506001828154811015156128c857fe5b9060005260206000209060070201600001546001838154811015156128e957fe5b9060005260206000209060070201600601600083815260200190815260200160002060020154145b1561291f5782806001019350505b808060010191505061282f565b508192505050919050565b600061294283611f4f565b80156129535750612952846114df565b5b15612ba5576129606141e1565b6080604051908101604052808581526020018781526020018673ffffffffffffffffffffffffffffffffffffffff168152602001848152509050600281908060018154018082558091505090600182039060005260206000209060040201600090919290919091506000820151816000015560208201518160010190805190602001906129ee929190614161565b5060408201518160020160006101000a81548173ffffffffffffffffffffffffffffffffffffffff021916908373ffffffffffffffffffffffffffffffffffffffff1602179055506060820151816003019080519060200190612a52929190614161565b505050507f4f00c7b885d3a22336c66b1d625a1c3739bf600c8ef0cc9d1ef99ae50903d4f78487878660405180858152602001806020018473ffffffffffffffffffffffffffffffffffffffff1673ffffffffffffffffffffffffffffffffffffffff16815260200180602001838103835286818151815260200191508051906020019080838360005b83811015612af7578082015181840152602081019050612adc565b50505050905090810190601f168015612b245780820380516001836020036101000a031916815260200191505b50838103825284818151815260200191508051906020019080838360005b83811015612b5d578082015181840152602081019050612b42565b50505050905090810190601f168015612b8a5780820380516001836020036101000a031916815260200191505b50965050505050505060405180910390a16001915050612baa565b600090505b949350505050565b6000612bbd86611fc1565b8015612bce5750612bcd846114df565b5b15612e5257612bdb614220565b60c0604051908101604052808881526020018781526020018673ffffffffffffffffffffffffffffffffffffffff1681526020018581526020016000815260200184815250905060008190806001815401808255809150509060018203906000526020600020906007020160009091929091909150600082015181600001556020820151816001019080519060200190612c76929190614161565b5060408201518160020160006101000a81548173ffffffffffffffffffffffffffffffffffffffff021916908373ffffffffffffffffffffffffffffffffffffffff160217905550606082015181600301556080820151816004015560a0820151816005019080519060200190612cee929190614161565b505050507f4b0cfa91b70b04890ce3d872e5ffb77ad35a75302ad0d967f53cbdbb641800ee8787878760008860405180878152602001806020018673ffffffffffffffffffffffffffffffffffffffff1673ffffffffffffffffffffffffffffffffffffffff16815260200185815260200184815260200180602001838103835288818151815260200191508051906020019080838360005b83811015612da2578082015181840152602081019050612d87565b50505050905090810190601f168015612dcf5780820380516001836020036101000a031916815260200191505b50838103825284818151815260200191508051906020019080838360005b83811015612e08578082015181840152602081019050612ded565b50505050905090810190601f168015612e355780820380516001836020036101000a031916815260200191505b509850505050505050505060405180910390a16001915050612e57565b600090505b95945050505050565b6000806060806000806000612e74886120b9565b9050600181815481101515612e8557fe5b906000526020600020906007020160000154600182815481101515612ea657fe5b906000526020600020906007020160010154600183815481101515612ec757fe5b9060005260206000209060070201600201600184815481101515612ee757fe5b9060005260206000209060070201600301600185815481101515612f0757fe5b906000526020600020906007020160040154600186815481101515612f2857fe5b906000526020600020906007020160050160009054906101000a900460ff16838054600181600116156101000203166002900480601f016020809104026020016040519081016040528092919081815260200182805460018160011615610100020316600290048015612fdc5780601f10612fb157610100808354040283529160200191612fdc565b820191906000526020600020905b815481529060010190602001808311612fbf57829003601f168201915b50505050509350828054600181600116156101000203166002900480601f0160208091040260200160405190810160405280929190818152602001828054600181600116156101000203166002900480156130785780601f1061304d57610100808354040283529160200191613078565b820191906000526020600020905b81548152906001019060200180831161305b57829003601f168201915b505050505092509650965096509650965096505091939550919395565b60008060008060006130a6876120b9565b90506001818154811015156130b757fe5b90600052602060002090600702016006016000878152602001908152602001600020600001546001828154811015156130ec57fe5b906000526020600020906007020160060160008881526020019081526020016000206002015460018381548110151561312157fe5b906000526020600020906007020160060160008981526020019081526020016000206001015460018481548110151561315657fe5b906000526020600020906007020160060160008a815260200190815260200160002060040160009054906101000a900460ff1694509450945094505092959194509250565b600060606000806000606060006131b188613baf565b90506000818154811015156131c257fe5b9060005260206000209060070201600001546000828154811015156131e357fe5b906000526020600020906007020160010160008381548110151561320357fe5b906000526020600020906007020160020160009054906101000a900473ffffffffffffffffffffffffffffffffffffffff1660008481548110151561324457fe5b90600052602060002090600702016003015460008581548110151561326557fe5b90600052602060002090600702016004015460008681548110151561328657fe5b9060005260206000209060070201600501848054600181600116156101000203166002900480601f01602080910402602001604051908101604052809291908181526020018280546001816001161561010002031660029004801561332c5780601f106133015761010080835404028352916020019161332c565b820191906000526020600020905b81548152906001019060200180831161330f57829003601f168201915b50505050509450808054600181600116156101000203166002900480601f0160208091040260200160405190810160405280929190818152602001828054600181600116156101000203166002900480156133c85780601f1061339d576101008083540402835291602001916133c8565b820191906000526020600020905b8154815290600101906020018083116133ab57829003601f168201915b505050505090509650965096509650965096505091939550919395565b6000806133f1836120b9565b90506000600281111561340057fe5b60018281548110151561340f57fe5b906000526020600020906007020160050160009054906101000a900460ff16600281111561343957fe5b141561369e576001808281548110151561344f57fe5b906000526020600020906007020160050160006101000a81548160ff0219169083600281111561347b57fe5b02179055507f4e68a854e9cc6a926a82fba13a4309738873fceb9a479a09bf09e54ab3f4a2eb6001828154811015156134b057fe5b9060005260206000209060070201600001546001838154811015156134d157fe5b9060005260206000209060070201600101546001848154811015156134f257fe5b906000526020600020906007020160020160018581548110151561351257fe5b906000526020600020906007020160030160018681548110151561353257fe5b906000526020600020906007020160050160009054906101000a900460ff1660405180868152602001858152602001806020018060200184600281111561357557fe5b60ff1681526020018381038352868181546001816001161561010002031660029004815260200191508054600181600116156101000203166002900480156135fe5780601f106135d3576101008083540402835291602001916135fe565b820191906000526020600020905b8154815290600101906020018083116135e157829003601f168201915b50508381038252858181546001816001161561010002031660029004815260200191508054600181600116156101000203166002900480156136815780601f1061365657610100808354040283529160200191613681565b820191906000526020600020905b81548152906001019060200180831161366457829003601f168201915b505097505050505050505060405180910390a160019150506136a4565b60009150505b919050565b6000806136b5846120b9565b905060006136c286613baf565b9050836136ce86612815565b10151561374e5760008090505b848110156136fb576136ed828461375c565b5080806001019150506136db565b507f40b963f4c366c9198c53b5c895028a852b8d8e53a54f37afe27d373efefa14fe86868660405180848152602001838152602001828152602001935050505060405180910390a1600192505050613755565b6000925050505b9392505050565b60008060008481548110151561376e57fe5b906000526020600020906007020160040154905060008090505b60018481548110151561379757fe5b906000526020600020906007020160040154811015613af757600060038111156137bd57fe5b6001858154811015156137cc57fe5b9060005260206000209060070201600601600083815260200190815260200160002060040160009054906101000a900460ff16600381111561380a57fe5b1415613aea5760008581548110151561381f57fe5b90600052602060002090600702016000015460018581548110151561384057fe5b90600052602060002090600702016006016000838152602001908152602001600020600101819055506001808581548110151561387957fe5b9060005260206000209060070201600601600083815260200190815260200160002060040160006101000a81548160ff021916908360038111156138b957fe5b02179055506001848154811015156138cd57fe5b906000526020600020906007020160060160008281526020019081526020016000206000868154811015156138fe57fe5b90600052602060002090600702016006016000848152602001908152602001600020600082015481600001556001820154816001015560028201548160020155600382015481600301556004820160009054906101000a900460ff168160040160006101000a81548160ff0219169083600381111561397957fe5b02179055509050507fe72b23892c8d4d4414c71ca14e9e74d3ca3c203d8da2f31e1d791ae32d463e166000868154811015156139b157fe5b9060005260206000209060070201600001546000878154811015156139d257fe5b906000526020600020906007020160060160008581526020019081526020016000206002015484600089815481101515613a0857fe5b906000526020600020906007020160060160008781526020019081526020016000206003015460008a815481101515613a3d57fe5b9060005260206000209060070201600601600088815260200190815260200160002060040160009054906101000a900460ff1660405180868152602001858152602001848152602001838152602001826003811115613a9857fe5b60ff1681526020019550505050505060405180910390a1600085815481101515613abe57fe5b906000526020600020906007020160040160008154809291906001019190505550600192505050613afe565b8080600101915050613788565b5060009150505b92915050565b60008080549050905090565b600080613b1c84613baf565b9050600080905060008090505b600083815481101515613b3857fe5b906000526020600020906007020160040154811015613ba35784600084815481101515613b6157fe5b90600052602060002090600702016006016000838152602001908152602001600020600201541415613b965781806001019250505b8080600101915050613b29565b50809250505092915050565b600080600090505b613bbf613b04565b811015613c045782600082815481101515613bd657fe5b9060005260206000209060070201600001541415613bf75780915050613c0a565b8080600101915050613bb7565b50600090505b919050565b60006060600080600080613c2288613baf565b9050600081815481101515613c3357fe5b906000526020600020906007020160000154600082815481101515613c5457fe5b9060005260206000209060070201600101600083815481101515613c7457fe5b906000526020600020906007020160060160008a815260200190815260200160002060010154600084815481101515613ca957fe5b906000526020600020906007020160060160008b815260200190815260200160002060020154600085815481101515613cde57fe5b906000526020600020906007020160060160008c815260200190815260200160002060040160009054906101000a900460ff16838054600181600116156101000203166002900480601f016020809104026020016040519081016040528092919081815260200182805460018160011615610100020316600290048015613da65780601f10613d7b57610100808354040283529160200191613da6565b820191906000526020600020905b815481529060010190602001808311613d8957829003601f168201915b5050505050935095509550955095509550509295509295909350565b600080613dce836120b9565b90506000613ddb85613baf565b9050613de68461146d565b158015613e36575060016002811115613dfb57fe5b600183815481101515613e0a57fe5b906000526020600020906007020160050160009054906101000a900460ff166002811115613e3457fe5b145b156141125760008090505b600082815481101515613e5057fe5b9060005260206000209060070201600401548110156141065784600083815481101515613e7957fe5b9060005260206000209060070201600601600083815260200190815260200160002060020154148015613f03575060016003811115613eb457fe5b600083815481101515613ec357fe5b9060005260206000209060070201600601600083815260200190815260200160002060040160009054906101000a900460ff166003811115613f0157fe5b145b156140f95760008083815481101515613f1857fe5b906000526020600020906007020160060160008381526020019081526020016000206000015490506002600185815481101515613f5157fe5b9060005260206000209060070201600601600083815260200190815260200160002060040160006101000a81548160ff02191690836003811115613f9157fe5b0217905550600184815481101515613fa557fe5b90600052602060002090600702016006016000828152602001908152602001600020600084815481101515613fd657fe5b90600052602060002090600702016006016000848152602001908152602001600020600082015481600001556001820154816001015560028201548160020155600382015481600301556004820160009054906101000a900460ff168160040160006101000a81548160ff0219169083600381111561405157fe5b02179055509050507f24579924ee4db282267118b9187d4c6ac51707d33bd20040db020febaad041e387878460008781548110151561408c57fe5b9060005260206000209060070201600601600087815260200190815260200160002060040160009054906101000a900460ff16604051808581526020018481526020018381526020018260038111156140e157fe5b60ff16815260200194505050505060405180910390a1505b8080600101915050613e41565b50600192505050614119565b6000925050505b92915050565b60c06040519081016040528060008152602001600081526020016060815260200160608152602001600081526020016000600281111561415b57fe5b81525090565b828054600181600116156101000203166002900490600052602060002090601f016020900481019282601f106141a257805160ff19168380011785556141d0565b828001600101855582156141d0579182015b828111156141cf5782518255916020019190600101906141b4565b5b5090506141dd919061426d565b5090565b6080604051908101604052806000815260200160608152602001600073ffffffffffffffffffffffffffffffffffffffff168152602001606081525090565b60c0604051908101604052806000815260200160608152602001600073ffffffffffffffffffffffffffffffffffffffff1681526020016000815260200160008152602001606081525090565b61428f91905b8082111561428b576000816000905550600101614273565b5090565b9056fea165627a7a723058206f06b1f39877dd8e34f2216979f404af6d28ced4136e889e36c0eec13b176d730029",
  "source": "pragma solidity >=0.4.22 <0.6.0;\r\n\r\ncontract Services{\r\n\r\n    struct ticket{\r\n        //the position of a ticket\r\n        uint ticketPos;\r\n        //the id of a user\r\n        uint user_id;\r\n        //the id of game to the ticket\r\n        uint game_id;\r\n        //the price of the ticket, inn kr\r\n        int price;\r\n        //What state the ticket is in\r\n        States state;\r\n    }\r\n\r\n    struct game{\r\n        //the id of game\r\n        uint game_id;\r\n        //the id of event organizer\r\n        uint evnetOrganizer_id;\r\n        //name of the home team\r\n        string homeTeam;\r\n        //the name of foreign team\r\n        string foreignTeam;\r\n        //the number of ticket in a game\r\n        uint number_of_tickets;\r\n        //the state of a Games\r\n        GameStates gameState;\r\n        //create a mapping to struct tickets\r\n        mapping(uint => ticket) tickets;\r\n    }\r\n\r\n    struct user{\r\n        //the id of the user\r\n        uint user_id;\r\n        //the name og onwer\r\n        string name;\r\n        //the addr of user in ethereum\r\n        address addr;\r\n        //mobile number to user\r\n        int mobile;\r\n        //number of ticket own\r\n        uint ticketOwns;\r\n        //password to the user\r\n        string password;\r\n        //which ticket the user owns\r\n        mapping(uint => ticket) tickets;\r\n    }\r\n\r\n    struct eventOrganizer{\r\n        //the id of event organizer\r\n        uint evnetOrganizer_id;\r\n        //the name of event\r\n        string name;\r\n        //the address of event organizer\r\n        address addr;\r\n        //password to the event organizer\r\n        string password;\r\n    }\r\n\r\n    //enum which state the ticket is in\r\n    enum States {available, bought, spent, invaild}\r\n\r\n    //enum for which state a game is\r\n    enum GameStates{notStarted, ongoing, ended}\r\n\r\n    //all Users\r\n    user[] Users;\r\n\r\n    //all Games\r\n    game[] Games;\r\n\r\n    //all event Organizer\r\n    eventOrganizer[] EventOrganizers;\r\n\r\n    //Create event for createGame\r\n    event CreateGame(uint _gameId, uint _evnetOrganizerId, string _homeTeam, string _foreignTeam, uint _tickets, GameStates state);\r\n\r\n    //Create event for createTicket\r\n    event CreateTicket(uint _ticketPos, uint _userId,  uint _gameId, int _price, States state);\r\n\r\n    //Create event for createUser\r\n    event CreateUser(uint _userId, string  _name, address _addr, int _mobile, uint _ticketOwns, string _password);\r\n\r\n    //Create event for createEvent\r\n    event CreateEventOrganizer(uint _evnetOrganizerId, string _name, address _addr, string _password);\r\n\r\n    //Create event for buyTickets\r\n    event BuyTickets(uint _userId, uint _gameId, uint _tickets);\r\n\r\n    //Create event for buyTicket\r\n    event BuyTicket(uint _userId, uint _gameId, uint _ticketpos, int _price, States state);\r\n\r\n    //Create event for TicketState\r\n    event TicketState(uint _userId, uint _gameId, uint _ticketId, States state);\r\n\r\n    //Create event for change gameState\r\n    event GameSate(uint _gameId, uint _evnetOrganizerId, string _homeTeam, string _foreignTeam, GameStates state);\r\n\r\n    //createEventOrganizer function create a event organizer in EventOrganizers[]\r\n    //@param string memory _name is the name of a event organizer\r\n    //@param address _addr is teh ethereum address to event organizer\r\n    //@return bool, true if was successfull created, false if failed\r\n    function createEventOrganizer(string memory _name, address _addr, uint _evnetOrganizerId, string memory _password) public returns(bool){\r\n\r\n        //check if event organizer already exits\r\n        if(checkEventOrganizer(_evnetOrganizerId) && checkAddr(_addr)){\r\n            eventOrganizer memory e = eventOrganizer(_evnetOrganizerId, _name, _addr, _password);      //Create a temporary memory of struct eventOrganizer\r\n            EventOrganizers.push(e);\r\n\r\n            emit CreateEventOrganizer(_evnetOrganizerId, _name, _addr, _password);  \r\n\r\n            return (true);\r\n\r\n        } else{\r\n\r\n            return(false);\r\n        }\r\n    }\r\n\r\n    //checkEventOrganizer function makes sure that address aren't begin used more then one time\r\n    //@param address _addr is the address begin check\r\n    //@returns bool, return true if not begin used, and false if are already used\r\n    function checkEventOrganizer(uint _evnetOrganizerId)public view returns(bool){\r\n\r\n        //check if EventOrganizers[] hold something\r\n        if(getCounterEventOrganizer() != 0){\r\n\r\n            //go throught all EventOrganizers\r\n            for(uint i = 0; i < getCounterEventOrganizer(); i ++){\r\n\r\n                //check if the address is used\r\n                if(EventOrganizers[i].evnetOrganizer_id == _evnetOrganizerId){\r\n\r\n                    return(false);\r\n                }\r\n            }\r\n        }\r\n        return (true);\r\n    }\r\n\r\n    //checkAddr function makes sure that address aren't begin used more then one time\r\n    //@param address _addr is the address begin check\r\n    //@returns bool, return true if not begin used, and false if are already used\r\n    function checkAddr(address _addr)public view returns(bool){\r\n\r\n        //check if EventOrganizers[] hold something\r\n        if(getCounterEventOrganizer() != 0){\r\n\r\n            //go throught all EventOrganizers\r\n            for(uint i = 0; i < getCounterEventOrganizer(); i ++){\r\n\r\n                //check if the address is used\r\n                if(EventOrganizers[i].addr == _addr){\r\n\r\n                    return(false);                                                 //return false if address is already in used\r\n                }\r\n            }\r\n        }\r\n\r\n        //check if Users[] holds something\r\n        if(getCounterUsers() != 0){\r\n\r\n            //check every Users[]\r\n            for(uint i = 0; i < getCounterUsers(); i++){\r\n\r\n                //if address is the same\r\n                if(Users[i].addr == _addr){\r\n\r\n                    return (false);                                                 //return false, id and addr already begin used\r\n                }\r\n            }\r\n        }\r\n\r\n        return (true);                                                             //return true if address is not begin used\r\n    }\r\n\r\n    //getCounterEventOrganizer function counts how many object is in the EventOrganizers[]\r\n    //@return uint of how many object is in the EventOrganizers[]\r\n    function getCounterEventOrganizer() public view returns(uint){\r\n        return EventOrganizers.length;\r\n    }\r\n\r\n\r\n    //findPosEventOrganizer function finds the position of a event organizer\r\n    //@param uint  _evnetOrganizerId is the the id of a event organizer\r\n    //@return uint of position to evnetOrganizerId in the EventOrganizers[]\r\n    function findPosEventOrganizer(uint _evnetOrganizerId) public view returns(uint){\r\n\r\n        //go through ever object in EventOrganizers[]\r\n        for(uint i = 0; i < getCounterEventOrganizer(); i++){\r\n\r\n            //check if the userId matches\r\n            if(EventOrganizers[i].evnetOrganizer_id == _evnetOrganizerId){\r\n                return (i);                                             //return the position\r\n            }\r\n        }\r\n        return 0;                                                       //return 0 if there are no object in EventOrganizers[]\r\n    }\r\n\r\n    //getEventOrganizer function gets all the information about a event organizer\r\n    //@param uint _evnetOrganizerId is the id of evnet organizer\r\n    //@return uint of the evnet Organizer Id, string of evnet Organizer name, address of evnet Organizer and password\r\n    function getEventOrganizer(uint _evnetOrganizerId)public view returns(uint, string memory, address, string memory){\r\n        uint pos = findPosEventOrganizer(_evnetOrganizerId);\r\n\r\n        return(EventOrganizers[pos].evnetOrganizer_id,\r\n        EventOrganizers[pos].name,\r\n        EventOrganizers[pos].addr,\r\n        EventOrganizers[pos].password);\r\n    }\r\n\r\n    //createUser function create a user in user[]\r\n    //@param uint _userId setting the id to user\r\n    //@param string memory _name setting full name\r\n    //@param address _addr is the ethereum address in the network to user\r\n    //@param int _mobile setting mobile number to user\r\n    //@returns bool, return true if the function was successfull\r\n    function createUser(uint _userId, string memory _name, address _addr, int _mobile, string memory _password) public returns(bool){\r\n\r\n        //call the function checkUser to check _userId and _addr\r\n        if(checkUser(_userId) && checkAddr(_addr)){\r\n\r\n            user memory u = user(_userId, _name, _addr, _mobile, 0, _password);      //Create a temporary memory of struct user\r\n            Users.push(u);\r\n\r\n            emit CreateUser(_userId, _name, _addr, _mobile, 0, _password);        \r\n\r\n            return (true);\r\n\r\n        } else {\r\n\r\n            return (false);\r\n        }\r\n\r\n    }\r\n\r\n    //checkUser function make sure that id and address aren't begin used more then one time\r\n    //@param unit _userId is the id begin check\r\n    //@param address _addr is the address begin check\r\n    //@returns bool, return true if not begin used, and false if are already used\r\n    function checkUser(uint _userId) public view returns(bool){\r\n\r\n        //check if Users[] holds something\r\n        if(getCounterUsers() != 0){\r\n\r\n            //check every Users[]\r\n            for(uint i = 0; i < getCounterUsers(); i++){\r\n\r\n                //if userId is the same\r\n                if(Users[i].user_id == _userId){\r\n\r\n                    return (false);\r\n                }\r\n            }\r\n        }\r\n\r\n        return (true);\r\n    }\r\n\r\n    //getCounterUser function counts how many object is in the Users[]\r\n    //@return uint of how many object is in the Users[]\r\n    function getCounterUsers() public view returns(uint){\r\n        return (Users.length);\r\n    }\r\n\r\n    //findPosUser function finds the position of a user\r\n    //@param uint _userId is the the id of a user\r\n    //@return uint of position to userId in the Users[]\r\n    function findPosUser(uint _userId) public view returns(uint){\r\n\r\n        //go through ever object in Users[]\r\n        for(uint i = 0; i < getCounterUsers(); i++){\r\n\r\n            //check if the userId matches\r\n            if(Users[i].user_id == _userId){\r\n                return (i);                                             //return the position\r\n            }\r\n        }\r\n        return 0;                                                       //return 0 if there are no object in Users[]\r\n    }\r\n\r\n    //Create a game and tickets in Game[]\r\n    //@param uint _gameId is the the id of a game\r\n    //@param string memory _homeTeam are the name of hometeam\r\n    //@param string memory _foreignTeam is the name of the foreignteam\r\n    //@param unit _ticket is the number of tickets in a game, it start on 0\r\n    //@param int _price is the price of a ticket\r\n    //@return true if function was successful\r\n    function createGame(uint _gameId, uint _evnetOrganizerId, string memory _homeTeam,\r\n    string memory _foreignTeam, uint _tickets, int _price)public returns(bool){\r\n\r\n        //check if game already exists and event organizer exists\r\n        if(!checkEventOrganizer(_evnetOrganizerId) && checkGame(_gameId)){\r\n\r\n            game memory g = game(_gameId, _evnetOrganizerId, _homeTeam, _foreignTeam, _tickets, GameStates.notStarted);       //Create a temporary memory of struct game\r\n            Games.push(g);\r\n\r\n            emit CreateGame(_gameId,_evnetOrganizerId, _homeTeam, _foreignTeam, _tickets, GameStates.notStarted); \r\n\r\n            createTicket(_gameId, _tickets, _price);                                //call the function createTicket for creating the tickets in a game\r\n\r\n            return (true);\r\n\r\n        } else{\r\n            return(false);\r\n        }\r\n    }\r\n\r\n    //checkGame function check if gameId already exits\r\n    //@param uint _gameId is the id of a game\r\n    //@return bool, true if the gameId dont already exits and false if begin used\r\n    function checkGame(uint _gameId) public view returns(bool){\r\n\r\n        //check if Games[] hold something\r\n        if(getCountGame() != 0){\r\n\r\n            //go thought all the games\r\n            for(uint i = 0; i < getCountGame(); i++){\r\n\r\n                //check if gameId already exists\r\n                if(Games[i].game_id == _gameId){\r\n                    return (false); \r\n                }\r\n            }\r\n        }\r\n        return (true);\r\n    }\r\n\r\n    //getCounterGame function counts how many object is in the Games[]\r\n    //@return uint of how many object is in the Games[]\r\n    function getCountGame() public view returns(uint){\r\n        return(Games.length);\r\n    }\r\n\r\n    //createTicket function create ticket to a game\r\n    //@param uint _gameId is the id of game we want create ticket for\r\n    //@param uint _tickets is the number of tickets creating\r\n    //@param int _price is the price of a ticket\r\n    //@return bool, true if tickets was successfull created, false if failed\r\n    function createTicket(uint _gameId, uint _tickets, int _price)public returns(bool){\r\n        uint pos = findPosGame(_gameId);\r\n\r\n        //check if the _gameId and _tickets is same in Games[_gameId]\r\n        if(Games[pos].game_id == _gameId && Games[pos].number_of_tickets == _tickets){\r\n            //creating the number of ticket in a game\r\n                for(uint i = 0; i < _tickets; i++){\r\n\r\n                    Games[pos].tickets[i] = ticket(i, 0, _gameId, _price, States.available);   //add tickets for tickets in struct game\r\n\r\n                    emit CreateTicket(i, 0, _gameId, _price, States.available);\r\n                }\r\n\r\n                return (true);\r\n\r\n            } else {\r\n\r\n                return (false);\r\n            }\r\n         }\r\n\r\n    //findPosGames function finds the position of a game\r\n    //@param uint _gameId is the the id of a game\r\n    //@return uint of position to gameId in the Games[]\r\n    function findPosGame(uint _gameId) public view returns(uint){\r\n\r\n        //go through ever object in Games[]\r\n        for(uint i = 0; i < getCountGame(); i++){\r\n\r\n            //if gameId  is the same\r\n            if(Games[i].game_id == _gameId){\r\n                return (i);                                         //return uint of the position\r\n            }\r\n        }\r\n        return 0;                                                    // retunr 0, there are no object in Games[]\r\n    }\r\n\r\n    //getTicket function gets a ticket by it's gameId and ticketPos\r\n    //@param uint _gameId is the id of a game\r\n    //@param uint _ticketId is the id of ticket in the game\r\n    //@return gameId, ticketPos and state to a ticket\r\n    function getTicket(uint _gameId, uint _ticketPos) public view returns(uint, uint, uint, States state){\r\n        uint pos = findPosGame(_gameId);\r\n\r\n        return(Games[pos].tickets[_ticketPos].ticketPos,\r\n        Games[pos].tickets[_ticketPos].game_id,\r\n        Games[pos].tickets[_ticketPos].user_id,\r\n        Games[pos].tickets[_ticketPos].state);\r\n    }\r\n\r\n    //getGame function gets all the information to a game\r\n    //@param uint _gameId is the id of a game\r\n    //@return gameId, eventOrganizersId, homeTeam, foreignTeam, number of ticket and gameState\r\n    function getGame(uint _gameId) public view returns(uint, uint, string memory, string memory, uint, GameStates state){\r\n        uint pos = findPosGame(_gameId);\r\n\r\n        return(Games[pos].game_id,\r\n        Games[pos].evnetOrganizer_id,\r\n        Games[pos].homeTeam,\r\n        Games[pos].foreignTeam,\r\n        Games[pos].number_of_tickets,\r\n        Games[pos].gameState);\r\n    }\r\n\r\n    //getEventOrganizerGame function gets all the information about game to evnt organizer\r\n    //@param uint _eventOrganizerId is the id of a event organizer\r\n    //@param uint _gameId is the id of a game\r\n    //@return eventOrganizersId, name, gameId, homeTeam, foreignTeam, number of ticket and gameState\r\n    function getEventOrganizerGame(uint _eventOrganizerId, uint _gameId) public view returns\r\n    (uint,string memory, uint, string memory, string memory, uint, GameStates state){\r\n        uint posG = findPosGame(_gameId);\r\n        uint posU = findPosEventOrganizer(_eventOrganizerId);\r\n        \r\n        if(EventOrganizers[posU].evnetOrganizer_id == Games[posG].evnetOrganizer_id){\r\n            return(EventOrganizers[posU].evnetOrganizer_id,\r\n            EventOrganizers[posU].name,\r\n            Games[posG].game_id,\r\n            Games[posG].homeTeam,\r\n            Games[posG].foreignTeam,\r\n            Games[posG].number_of_tickets,\r\n            Games[posG].gameState);\r\n        }\r\n    }\r\n\r\n    //countEventOrganizerGame function count how many game a evnet organizer is organizing\r\n    //@param uint _eventOrganizerId is the id of a event organizer\r\n    //@param uint _gameId is the id of a game\r\n    //@return uint of many many game a event organizer is organizing\r\n    function countEventOrganizerGame(uint _eventOrganizerId) public view returns(uint){\r\n        uint posU = findPosEventOrganizer(_eventOrganizerId);\r\n        uint counter = 0;\r\n\r\n        for(uint i = 0; i < getCountGame(); i++){\r\n\r\n            if(EventOrganizers[posU].evnetOrganizer_id == Games[i].evnetOrganizer_id){\r\n                counter++;\r\n            }\r\n        }\r\n        return(counter);\r\n    }\r\n\r\n    //getEventOrganizerAddr get the ethereum address to a event organizer\r\n    //@param uint _evnetOrganizerId is the id of event organizer\r\n    //@return address to event organizer\r\n    function getEventOrganizerAddr(uint _eventOrganizerId) public view returns(address){\r\n       uint posU = findPosEventOrganizer(_eventOrganizerId);\r\n       \r\n       if(EventOrganizers[posU].evnetOrganizer_id == _eventOrganizerId){\r\n           return(EventOrganizers[posU].addr);\r\n       }\r\n    }\r\n\r\n    //getTicketAvailable gets number of tickets available in a game\r\n    //@param uint _gameId is the id of a game\r\n    //@return uint of number available in a game\r\n    function getTicketAvailable(uint _gameId) public view returns(uint){\r\n        uint counter = 0;\r\n        uint pos = findPosGame(_gameId);\r\n\r\n        //check all tickets in a game\r\n        for(uint i = 0; i < Games[pos].number_of_tickets; i++){\r\n\r\n            //if is successful, will add to the counter\r\n            if(Games[pos].tickets[i].state == States.available && Games[pos].tickets[i].game_id == Games[pos].game_id){\r\n                counter++;\r\n            }\r\n        }\r\n        return (counter);\r\n    }\r\n\r\n    //buyTicket let a user buy several tickets in game\r\n    //@param uint _userId is the id of the user\r\n    //@param uint _gameId is the the id of game the user want buy ticket\r\n    //@return bool, true if ticket was buyed, false if no ticket available\r\n    function buyTickets(uint _userId, uint _gameId, uint _tickets) public returns(bool){\r\n        uint posG = findPosGame(_gameId);\r\n        uint posU = findPosUser(_userId);\r\n\r\n\r\n        //check if there any ticket available\r\n        if(getTicketAvailable(_gameId) >= _tickets){\r\n\r\n            //go throught number of ticket user wish to buy\r\n            for(uint i = 0; i < _tickets; i++){\r\n\r\n                buy(posU, posG);\r\n            \r\n                }\r\n\r\n                emit BuyTickets(_userId, _gameId, _tickets);\r\n\r\n                return(true);\r\n        }\r\n        return (false);\r\n    }\r\n\r\n    //buy functio is go through all ticket in game and sett user to a tciket (let user buy it)\r\n    //@param uint _posU is the position of the user\r\n    //@param uint _posG is the position of the game\r\n    //@return bool, true if a ticket was successfull bought, false if no ticket available\r\n    function buy(uint _posU, uint _posG)public returns(bool){\r\n        uint posT = Users[_posU].ticketOwns;\r\n\r\n        //go throught very ticket in the game\r\n        for(uint i = 0; i < Games[_posG].number_of_tickets; i++){\r\n\r\n            //check if the ticket are available\r\n            if(Games[_posG].tickets[i].state == States.available){\r\n\r\n                Games[_posG].tickets[i].user_id = Users[_posU].user_id;       //Sett the user id\r\n\r\n                Games[_posG].tickets[i].state = States.bought;               //change the state to bought\r\n\r\n                Users[_posU].tickets[posT] = Games[_posG].tickets[i];         //cop ticket to Users[].tickets[]\r\n\r\n                emit BuyTicket(Users[_posU].user_id,\r\n                Users[_posU].tickets[posT].game_id,\r\n                posT, Users[_posU].tickets[posT].price,\r\n                Users[_posU].tickets[posT].state);\r\n\r\n                Users[_posU].ticketOwns++;\r\n\r\n                return (true);\r\n            }\r\n        }\r\n        return (false);\r\n    }\r\n\r\n    //getUser function gets a ticket from user\r\n    //@param uint _userId is the id of user\r\n    //@param uint _ticketId is the id of ticket\r\n    //@return uint and uint, the userId, ticketId and passord\r\n    function getUser(uint _userId) public view returns(uint, string memory, address, int, uint, string memory){\r\n        uint pos = findPosUser(_userId);\r\n\r\n        return(Users[pos].user_id,\r\n        Users[pos].name,\r\n        Users[pos].addr,\r\n        Users[pos].mobile,\r\n        Users[pos].ticketOwns,\r\n        Users[pos].password);\r\n    }\r\n\r\n    //getUser_ticket function gets a ticket for user\r\n    //@param uint _userId is the id of user\r\n    //@param uint _ticket is the ticket we get\r\n    //@return uint of userId, string memory of user name, uint ticketId own\r\n    function getUser_ticket(uint _userId, uint _ticket) public view returns(uint, string memory, uint, uint, States State){\r\n        uint pos = findPosUser(_userId);\r\n        return(Users[pos].user_id,\r\n        Users[pos].name,\r\n        Users[pos].tickets[_ticket].user_id,\r\n        Users[pos].tickets[_ticket].game_id,\r\n        Users[pos].tickets[_ticket].state);\r\n    }\r\n\r\n\r\n    //getTicketsOwn function check how many tickets user owns to a game\r\n    //@param uint _userId is the id of a user\r\n    //@param uint _gameId is the id of a game\r\n    //@return uint counter with how many ticket own to a game\r\n    function get_number_Of_ticket_own(uint _userId, uint _gameId) public view returns(uint){\r\n        uint pos = findPosUser(_userId);\r\n        uint counter = 0;\r\n\r\n        //go throught ever own ticket\r\n        for(uint i = 0; i < Users[pos].ticketOwns; i++){\r\n\r\n            //check ticket gameId\r\n            if(Users[pos].tickets[i].game_id == _gameId){\r\n                counter++;                                                          //add to counter if gamedId is same\r\n            }\r\n        }\r\n        return(counter);                                                            //return counter of how many ticket own in a game\r\n    }\r\n\r\n    //gameStart function is the change the state of a game to ongoing\r\n    //@param uint _gameId is the id of a game\r\n    //@return bool, true if was successful, false if failed\r\n    function gameStart(uint _gameId) public returns(bool) {\r\n        uint pos = findPosGame(_gameId);\r\n\r\n        if(Games[pos].gameState == GameStates.notStarted){\r\n\r\n            Games[pos].gameState = GameStates.ongoing;\r\n\r\n            emit GameSate(Games[pos].game_id, Games[pos].evnetOrganizer_id, Games[pos].homeTeam, Games[pos].foreignTeam, Games[pos].gameState);\r\n\r\n            return (true);\r\n        }\r\n        return (false);\r\n    }\r\n\r\n    //gameEnded function changes the state of a game to nded\r\n    //@param uint _gameId is the id of a game\r\n    //@return bool, true if was successful, false if failed\r\n    function gameEnded(uint _gameId) public returns(bool) {\r\n        uint pos = findPosGame(_gameId);\r\n\r\n        if(Games[pos].gameState == GameStates.ongoing){\r\n\r\n            Games[pos].gameState = GameStates.ended;\r\n\r\n            emit GameSate(Games[pos].game_id, Games[pos].evnetOrganizer_id, Games[pos].homeTeam, Games[pos].foreignTeam, Games[pos].gameState);\r\n\r\n            return (true);\r\n        }\r\n        return (false);\r\n    }\r\n\r\n    //vaildateTicket function changes the state of  ticket to spent\r\n    //@param uint _userId is the id of a user\r\n    //@param uint _gameId is the id of a game\r\n    //@return bool, true if ticket was successfull vaildate and change state spent, false if failed\r\n    function vaildateTicket(uint _userId, uint _gameId) public returns(bool){\r\n        uint posG = findPosGame(_gameId);\r\n        uint posU = findPosUser(_userId);\r\n\r\n        if(!checkGame(_gameId) && Games[posG].gameState == GameStates.ongoing){\r\n            for(uint i = 0; i < Users[posU].ticketOwns; i++){\r\n                if(Users[posU].tickets[i].game_id == _gameId && Users[posU].tickets[i].state == States.bought){\r\n\r\n                uint tickPos = Users[posU].tickets[i].ticketPos;\r\n                \r\n                Games[posG].tickets[tickPos].state = States.spent;                           //change state to spent\r\n\r\n                Users[posU].tickets[i] = Games[posG].tickets[tickPos];            //copy the ticket info to Games[]\r\n\r\n                emit TicketState(_userId, _gameId, i, Users[posU].tickets[i].state);\r\n\r\n                }\r\n            }\r\n            return (true);\r\n        }\r\n         return (false);                                                                 //return false\r\n\r\n    }\r\n\r\n    //invaildTicket function changes the state of  ticket to spent\r\n    //@param uint _userId is the id of a user\r\n    //@param uint _gameId is the id of a game\r\n    //@return bool, true if ticket was successfull invalid and change state invalid, false if failed\r\n    function invalidTicket(uint _userId, uint _gameId) public returns(bool){\r\n        uint posG = findPosGame(_gameId);\r\n        uint posU = findPosUser(_userId);\r\n\r\n        if(!checkGame(_gameId)){\r\n            for(uint i = 0; i < Users[posU].ticketOwns; i++){\r\n                if(Users[posU].tickets[i].game_id == _gameId){\r\n\r\n                uint tickPos = Users[posU].tickets[i].ticketPos;\r\n                \r\n                Games[posG].tickets[tickPos].state = States.invaild;                           //change state to invalid\r\n\r\n                Users[posU].tickets[i] = Games[posG].tickets[tickPos];            //copy the ticket info to Games[]\r\n\r\n                emit TicketState(_userId, _gameId, i, Users[posU].tickets[i].state);\r\n\r\n                }\r\n            }\r\n            return (true);\r\n        }\r\n         return (false);                                                                 //return false\r\n\r\n    }\r\n}",
  "sourcePath": "C:/Users/ANDRI/bachelor2019/tickets_on_blockchain_NTNU_bachelor_2019/Application/contracts/services.sol",
  "compiler": {
    "name": "solc",
    "version": "0.5.0+commit.1d4f565a.Emscripten.clang"
  },
  "schemaVersion": "3.0.8",
  "updatedAt": "2019-05-19T17:16:19.553Z",
  "devdoc": {
    "methods": {}
  },
  "userdoc": {
    "methods": {}
  }
}